{
  "_format": "hh-sol-artifact-1",
  "contractName": "MyEpicGame",
  "sourceName": "contracts/MyEpicGame.sol",
  "abi": [
    {
      "inputs": [
        {
          "internalType": "string[]",
          "name": "characterNames",
          "type": "string[]"
        },
        {
          "internalType": "string[]",
          "name": "characterImageURIs",
          "type": "string[]"
        },
        {
          "internalType": "uint256[]",
          "name": "characterHp",
          "type": "uint256[]"
        },
        {
          "internalType": "uint256[]",
          "name": "characterAttackDmg",
          "type": "uint256[]"
        },
        {
          "internalType": "string",
          "name": "bossName",
          "type": "string"
        },
        {
          "internalType": "string",
          "name": "bossImageURI",
          "type": "string"
        },
        {
          "internalType": "uint256",
          "name": "bossHp",
          "type": "uint256"
        },
        {
          "internalType": "uint256",
          "name": "bossAttackDamage",
          "type": "uint256"
        }
      ],
      "stateMutability": "nonpayable",
      "type": "constructor"
    },
    {
      "anonymous": false,
      "inputs": [
        {
          "indexed": true,
          "internalType": "address",
          "name": "owner",
          "type": "address"
        },
        {
          "indexed": true,
          "internalType": "address",
          "name": "approved",
          "type": "address"
        },
        {
          "indexed": true,
          "internalType": "uint256",
          "name": "tokenId",
          "type": "uint256"
        }
      ],
      "name": "Approval",
      "type": "event"
    },
    {
      "anonymous": false,
      "inputs": [
        {
          "indexed": true,
          "internalType": "address",
          "name": "owner",
          "type": "address"
        },
        {
          "indexed": true,
          "internalType": "address",
          "name": "operator",
          "type": "address"
        },
        {
          "indexed": false,
          "internalType": "bool",
          "name": "approved",
          "type": "bool"
        }
      ],
      "name": "ApprovalForAll",
      "type": "event"
    },
    {
      "anonymous": false,
      "inputs": [
        {
          "indexed": false,
          "internalType": "address",
          "name": "sender",
          "type": "address"
        },
        {
          "indexed": false,
          "internalType": "uint256",
          "name": "newBossHp",
          "type": "uint256"
        },
        {
          "indexed": false,
          "internalType": "uint256",
          "name": "newPlayerHp",
          "type": "uint256"
        }
      ],
      "name": "AttackComplete",
      "type": "event"
    },
    {
      "anonymous": false,
      "inputs": [
        {
          "indexed": false,
          "internalType": "address",
          "name": "sender",
          "type": "address"
        },
        {
          "indexed": false,
          "internalType": "uint256",
          "name": "tokenId",
          "type": "uint256"
        },
        {
          "indexed": false,
          "internalType": "uint256",
          "name": "characterIndex",
          "type": "uint256"
        }
      ],
      "name": "CharacterNFTMinted",
      "type": "event"
    },
    {
      "anonymous": false,
      "inputs": [
        {
          "indexed": true,
          "internalType": "address",
          "name": "from",
          "type": "address"
        },
        {
          "indexed": true,
          "internalType": "address",
          "name": "to",
          "type": "address"
        },
        {
          "indexed": true,
          "internalType": "uint256",
          "name": "tokenId",
          "type": "uint256"
        }
      ],
      "name": "Transfer",
      "type": "event"
    },
    {
      "inputs": [
        {
          "internalType": "address",
          "name": "to",
          "type": "address"
        },
        {
          "internalType": "uint256",
          "name": "tokenId",
          "type": "uint256"
        }
      ],
      "name": "approve",
      "outputs": [],
      "stateMutability": "nonpayable",
      "type": "function"
    },
    {
      "inputs": [],
      "name": "attackBoss",
      "outputs": [],
      "stateMutability": "nonpayable",
      "type": "function"
    },
    {
      "inputs": [
        {
          "internalType": "address",
          "name": "owner",
          "type": "address"
        }
      ],
      "name": "balanceOf",
      "outputs": [
        {
          "internalType": "uint256",
          "name": "",
          "type": "uint256"
        }
      ],
      "stateMutability": "view",
      "type": "function"
    },
    {
      "inputs": [],
      "name": "bigBoss",
      "outputs": [
        {
          "internalType": "string",
          "name": "name",
          "type": "string"
        },
        {
          "internalType": "string",
          "name": "imageURI",
          "type": "string"
        },
        {
          "internalType": "uint256",
          "name": "hp",
          "type": "uint256"
        },
        {
          "internalType": "uint256",
          "name": "maxHp",
          "type": "uint256"
        },
        {
          "internalType": "uint256",
          "name": "attackDamage",
          "type": "uint256"
        }
      ],
      "stateMutability": "view",
      "type": "function"
    },
    {
      "inputs": [],
      "name": "checkIfUserHasNFT",
      "outputs": [
        {
          "components": [
            {
              "internalType": "uint256",
              "name": "characterIndex",
              "type": "uint256"
            },
            {
              "internalType": "string",
              "name": "name",
              "type": "string"
            },
            {
              "internalType": "string",
              "name": "imageURI",
              "type": "string"
            },
            {
              "internalType": "uint256",
              "name": "hp",
              "type": "uint256"
            },
            {
              "internalType": "uint256",
              "name": "maxHp",
              "type": "uint256"
            },
            {
              "internalType": "uint256",
              "name": "attackDamage",
              "type": "uint256"
            }
          ],
          "internalType": "struct MyEpicGame.CharacterAttributes",
          "name": "",
          "type": "tuple"
        }
      ],
      "stateMutability": "view",
      "type": "function"
    },
    {
      "inputs": [],
      "name": "getAllDefaultCharacters",
      "outputs": [
        {
          "components": [
            {
              "internalType": "uint256",
              "name": "characterIndex",
              "type": "uint256"
            },
            {
              "internalType": "string",
              "name": "name",
              "type": "string"
            },
            {
              "internalType": "string",
              "name": "imageURI",
              "type": "string"
            },
            {
              "internalType": "uint256",
              "name": "hp",
              "type": "uint256"
            },
            {
              "internalType": "uint256",
              "name": "maxHp",
              "type": "uint256"
            },
            {
              "internalType": "uint256",
              "name": "attackDamage",
              "type": "uint256"
            }
          ],
          "internalType": "struct MyEpicGame.CharacterAttributes[]",
          "name": "characters",
          "type": "tuple[]"
        }
      ],
      "stateMutability": "view",
      "type": "function"
    },
    {
      "inputs": [
        {
          "internalType": "uint256",
          "name": "tokenId",
          "type": "uint256"
        }
      ],
      "name": "getApproved",
      "outputs": [
        {
          "internalType": "address",
          "name": "",
          "type": "address"
        }
      ],
      "stateMutability": "view",
      "type": "function"
    },
    {
      "inputs": [
        {
          "internalType": "address",
          "name": "owner",
          "type": "address"
        },
        {
          "internalType": "address",
          "name": "operator",
          "type": "address"
        }
      ],
      "name": "isApprovedForAll",
      "outputs": [
        {
          "internalType": "bool",
          "name": "",
          "type": "bool"
        }
      ],
      "stateMutability": "view",
      "type": "function"
    },
    {
      "inputs": [
        {
          "internalType": "uint256",
          "name": "_characterIndex",
          "type": "uint256"
        }
      ],
      "name": "mintCharacterNFT",
      "outputs": [],
      "stateMutability": "nonpayable",
      "type": "function"
    },
    {
      "inputs": [],
      "name": "name",
      "outputs": [
        {
          "internalType": "string",
          "name": "",
          "type": "string"
        }
      ],
      "stateMutability": "view",
      "type": "function"
    },
    {
      "inputs": [
        {
          "internalType": "uint256",
          "name": "",
          "type": "uint256"
        }
      ],
      "name": "nftHolderAttributes",
      "outputs": [
        {
          "internalType": "uint256",
          "name": "characterIndex",
          "type": "uint256"
        },
        {
          "internalType": "string",
          "name": "name",
          "type": "string"
        },
        {
          "internalType": "string",
          "name": "imageURI",
          "type": "string"
        },
        {
          "internalType": "uint256",
          "name": "hp",
          "type": "uint256"
        },
        {
          "internalType": "uint256",
          "name": "maxHp",
          "type": "uint256"
        },
        {
          "internalType": "uint256",
          "name": "attackDamage",
          "type": "uint256"
        }
      ],
      "stateMutability": "view",
      "type": "function"
    },
    {
      "inputs": [
        {
          "internalType": "address",
          "name": "",
          "type": "address"
        }
      ],
      "name": "nftHolders",
      "outputs": [
        {
          "internalType": "uint256",
          "name": "",
          "type": "uint256"
        }
      ],
      "stateMutability": "view",
      "type": "function"
    },
    {
      "inputs": [
        {
          "internalType": "uint256",
          "name": "tokenId",
          "type": "uint256"
        }
      ],
      "name": "ownerOf",
      "outputs": [
        {
          "internalType": "address",
          "name": "",
          "type": "address"
        }
      ],
      "stateMutability": "view",
      "type": "function"
    },
    {
      "inputs": [
        {
          "internalType": "address",
          "name": "from",
          "type": "address"
        },
        {
          "internalType": "address",
          "name": "to",
          "type": "address"
        },
        {
          "internalType": "uint256",
          "name": "tokenId",
          "type": "uint256"
        }
      ],
      "name": "safeTransferFrom",
      "outputs": [],
      "stateMutability": "nonpayable",
      "type": "function"
    },
    {
      "inputs": [
        {
          "internalType": "address",
          "name": "from",
          "type": "address"
        },
        {
          "internalType": "address",
          "name": "to",
          "type": "address"
        },
        {
          "internalType": "uint256",
          "name": "tokenId",
          "type": "uint256"
        },
        {
          "internalType": "bytes",
          "name": "data",
          "type": "bytes"
        }
      ],
      "name": "safeTransferFrom",
      "outputs": [],
      "stateMutability": "nonpayable",
      "type": "function"
    },
    {
      "inputs": [
        {
          "internalType": "address",
          "name": "operator",
          "type": "address"
        },
        {
          "internalType": "bool",
          "name": "approved",
          "type": "bool"
        }
      ],
      "name": "setApprovalForAll",
      "outputs": [],
      "stateMutability": "nonpayable",
      "type": "function"
    },
    {
      "inputs": [
        {
          "internalType": "bytes4",
          "name": "interfaceId",
          "type": "bytes4"
        }
      ],
      "name": "supportsInterface",
      "outputs": [
        {
          "internalType": "bool",
          "name": "",
          "type": "bool"
        }
      ],
      "stateMutability": "view",
      "type": "function"
    },
    {
      "inputs": [],
      "name": "symbol",
      "outputs": [
        {
          "internalType": "string",
          "name": "",
          "type": "string"
        }
      ],
      "stateMutability": "view",
      "type": "function"
    },
    {
      "inputs": [
        {
          "internalType": "uint256",
          "name": "_tokenId",
          "type": "uint256"
        }
      ],
      "name": "tokenURI",
      "outputs": [
        {
          "internalType": "string",
          "name": "",
          "type": "string"
        }
      ],
      "stateMutability": "view",
      "type": "function"
    },
    {
      "inputs": [
        {
          "internalType": "address",
          "name": "from",
          "type": "address"
        },
        {
          "internalType": "address",
          "name": "to",
          "type": "address"
        },
        {
          "internalType": "uint256",
          "name": "tokenId",
          "type": "uint256"
        }
      ],
      "name": "transferFrom",
      "outputs": [],
      "stateMutability": "nonpayable",
      "type": "function"
    }
  ],
  "bytecode": "0x60806040523480156200001157600080fd5b50604051620056d2380380620056d2833981810160405281019062000037919062000a8b565b6040518060400160405280600681526020017f4865726f657300000000000000000000000000000000000000000000000000008152506040518060400160405280600481526020017f4845524f000000000000000000000000000000000000000000000000000000008152508160009081620000b4919062000e4f565b508060019081620000c6919062000e4f565b5050506040518060a00160405280858152602001848152602001838152602001838152602001828152506009600082015181600001908162000109919062000e4f565b50602082015181600101908162000121919062000e4f565b50604082015181600201556060820151816003015560808201518160040155905050620002a46040518060600160405280602a8152602001620056a8602a913960096000018054620001739062000c48565b80601f0160208091040260200160405190810160405280929190818152602001828054620001a19062000c48565b8015620001f25780601f10620001c657610100808354040283529160200191620001f2565b820191906000526020600020905b815481529060010190602001808311620001d457829003601f168201915b5050505050600960020154600960010180546200020f9062000c48565b80601f01602080910402602001604051908101604052809291908181526020018280546200023d9062000c48565b80156200028e5780601f1062000262576101008083540402835291602001916200028e565b820191906000526020600020905b8154815290600101906020018083116200027057829003601f168201915b50505050506200060060201b620019441760201c565b60005b8851811015620005da5760076040518060c001604052808381526020018b8481518110620002da57620002d962000f36565b5b602002602001015181526020018a8481518110620002fd57620002fc62000f36565b5b6020026020010151815260200189848151811062000320576200031f62000f36565b5b6020026020010151815260200189848151811062000343576200034262000f36565b5b6020026020010151815260200188848151811062000366576200036562000f36565b5b60200260200101518152509080600181540180825580915050600190039060005260206000209060060201600090919091909150600082015181600001556020820151816001019081620003bb919062000e4f565b506040820151816002019081620003d3919062000e4f565b50606082015181600301556080820151816004015560a0820151816005015550506000600782815481106200040d576200040c62000f36565b5b90600052602060002090600602016040518060c001604052908160008201548152602001600182018054620004429062000c48565b80601f0160208091040260200160405190810160405280929190818152602001828054620004709062000c48565b8015620004c15780601f106200049557610100808354040283529160200191620004c1565b820191906000526020600020905b815481529060010190602001808311620004a357829003601f168201915b50505050508152602001600282018054620004dc9062000c48565b80601f01602080910402602001604051908101604052809291908181526020018280546200050a9062000c48565b80156200055b5780601f106200052f576101008083540402835291602001916200055b565b820191906000526020600020905b8154815290600101906020018083116200053d57829003601f168201915b5050505050815260200160038201548152602001600482015481526020016005820154815250509050620005c260405180606001604052806025815260200162005683602591398260200151836060015184604001516200060060201b620019441760201c565b50600181620005d2919062000f94565b9050620002a7565b50620005f26006620006ac60201b620019e61760201c565b505050505050505062001094565b620006a6848484846040516024016200061d949392919062001032565b6040516020818303038152906040527f5d1a971a000000000000000000000000000000000000000000000000000000007bffffffffffffffffffffffffffffffffffffffffffffffffffffffff19166020820180517bffffffffffffffffffffffffffffffffffffffffffffffffffffffff8381831617835250505050620006c260201b60201c565b50505050565b6001816000016000828254019250508190555050565b60008151905060006a636f6e736f6c652e6c6f679050602083016000808483855afa5050505050565b6000604051905090565b600080fd5b600080fd5b600080fd5b6000601f19601f8301169050919050565b7f4e487b7100000000000000000000000000000000000000000000000000000000600052604160045260246000fd5b6200074f8262000704565b810181811067ffffffffffffffff8211171562000771576200077062000715565b5b80604052505050565b600062000786620006eb565b905062000794828262000744565b919050565b600067ffffffffffffffff821115620007b757620007b662000715565b5b602082029050602081019050919050565b600080fd5b600080fd5b600067ffffffffffffffff821115620007f057620007ef62000715565b5b620007fb8262000704565b9050602081019050919050565b60005b83811015620008285780820151818401526020810190506200080b565b60008484015250505050565b60006200084b6200084584620007d2565b6200077a565b9050828152602081018484840111156200086a5762000869620007cd565b5b6200087784828562000808565b509392505050565b600082601f830112620008975762000896620006ff565b5b8151620008a984826020860162000834565b91505092915050565b6000620008c9620008c38462000799565b6200077a565b90508083825260208201905060208402830185811115620008ef57620008ee620007c8565b5b835b818110156200093d57805167ffffffffffffffff811115620009185762000917620006ff565b5b8086016200092789826200087f565b85526020850194505050602081019050620008f1565b5050509392505050565b600082601f8301126200095f576200095e620006ff565b5b815162000971848260208601620008b2565b91505092915050565b600067ffffffffffffffff82111562000998576200099762000715565b5b602082029050602081019050919050565b6000819050919050565b620009be81620009a9565b8114620009ca57600080fd5b50565b600081519050620009de81620009b3565b92915050565b6000620009fb620009f5846200097a565b6200077a565b9050808382526020820190506020840283018581111562000a215762000a20620007c8565b5b835b8181101562000a4e578062000a398882620009cd565b84526020840193505060208101905062000a23565b5050509392505050565b600082601f83011262000a705762000a6f620006ff565b5b815162000a82848260208601620009e4565b91505092915050565b600080600080600080600080610100898b03121562000aaf5762000aae620006f5565b5b600089015167ffffffffffffffff81111562000ad05762000acf620006fa565b5b62000ade8b828c0162000947565b985050602089015167ffffffffffffffff81111562000b025762000b01620006fa565b5b62000b108b828c0162000947565b975050604089015167ffffffffffffffff81111562000b345762000b33620006fa565b5b62000b428b828c0162000a58565b965050606089015167ffffffffffffffff81111562000b665762000b65620006fa565b5b62000b748b828c0162000a58565b955050608089015167ffffffffffffffff81111562000b985762000b97620006fa565b5b62000ba68b828c016200087f565b94505060a089015167ffffffffffffffff81111562000bca5762000bc9620006fa565b5b62000bd88b828c016200087f565b93505060c062000beb8b828c01620009cd565b92505060e062000bfe8b828c01620009cd565b9150509295985092959890939650565b600081519050919050565b7f4e487b7100000000000000000000000000000000000000000000000000000000600052602260045260246000fd5b6000600282049050600182168062000c6157607f821691505b60208210810362000c775762000c7662000c19565b5b50919050565b60008190508160005260206000209050919050565b60006020601f8301049050919050565b600082821b905092915050565b60006008830262000ce17fffffffffffffffffffffffffffffffffffffffffffffffffffffffffffffffff8262000ca2565b62000ced868362000ca2565b95508019841693508086168417925050509392505050565b6000819050919050565b600062000d3062000d2a62000d2484620009a9565b62000d05565b620009a9565b9050919050565b6000819050919050565b62000d4c8362000d0f565b62000d6462000d5b8262000d37565b84845462000caf565b825550505050565b600090565b62000d7b62000d6c565b62000d8881848462000d41565b505050565b5b8181101562000db05762000da460008262000d71565b60018101905062000d8e565b5050565b601f82111562000dff5762000dc98162000c7d565b62000dd48462000c92565b8101602085101562000de4578190505b62000dfc62000df38562000c92565b83018262000d8d565b50505b505050565b600082821c905092915050565b600062000e246000198460080262000e04565b1980831691505092915050565b600062000e3f838362000e11565b9150826002028217905092915050565b62000e5a8262000c0e565b67ffffffffffffffff81111562000e765762000e7562000715565b5b62000e82825462000c48565b62000e8f82828562000db4565b600060209050601f83116001811462000ec7576000841562000eb2578287015190505b62000ebe858262000e31565b86555062000f2e565b601f19841662000ed78662000c7d565b60005b8281101562000f015784890151825560018201915060208501945060208101905062000eda565b8683101562000f21578489015162000f1d601f89168262000e11565b8355505b6001600288020188555050505b505050505050565b7f4e487b7100000000000000000000000000000000000000000000000000000000600052603260045260246000fd5b7f4e487b7100000000000000000000000000000000000000000000000000000000600052601160045260246000fd5b600062000fa182620009a9565b915062000fae83620009a9565b925082820190508082111562000fc95762000fc862000f65565b5b92915050565b600082825260208201905092915050565b600062000fed8262000c0e565b62000ff9818562000fcf565b93506200100b81856020860162000808565b620010168162000704565b840191505092915050565b6200102c81620009a9565b82525050565b600060808201905081810360008301526200104e818762000fe0565b9050818103602083015262001064818662000fe0565b905062001075604083018562001021565b818103606083015262001089818462000fe0565b905095945050505050565b6145df80620010a46000396000f3fe608060405234801561001057600080fd5b506004361061012c5760003560e01c806398da4c95116100ad578063c87b56dd11610071578063c87b56dd1461035e578063c8cf27f41461038e578063d4f24c5b146103ac578063e985e9c5146103b6578063f8b81ef7146103e65761012c565b806398da4c95146102b1578063a22cb465146102e6578063a9c3267914610302578063b88d4fde14610324578063b953084e146103405761012c565b806342842e0e116100f457806342842e0e146101e75780636352211e1461020357806370a08231146102335780637df124a11461026357806395d89b41146102935761012c565b806301ffc9a71461013157806306fdde0314610161578063081812fc1461017f578063095ea7b3146101af57806323b872dd146101cb575b600080fd5b61014b60048036038101906101469190612a54565b610402565b6040516101589190612a9c565b60405180910390f35b6101696104e4565b6040516101769190612b47565b60405180910390f35b61019960048036038101906101949190612b9f565b610576565b6040516101a69190612c0d565b60405180910390f35b6101c960048036038101906101c49190612c54565b6105bc565b005b6101e560048036038101906101e09190612c94565b6106d3565b005b61020160048036038101906101fc9190612c94565b610733565b005b61021d60048036038101906102189190612b9f565b610753565b60405161022a9190612c0d565b60405180910390f35b61024d60048036038101906102489190612ce7565b610804565b60405161025a9190612d23565b60405180910390f35b61027d60048036038101906102789190612ce7565b6108bb565b60405161028a9190612d23565b60405180910390f35b61029b6108d3565b6040516102a89190612b47565b60405180910390f35b6102cb60048036038101906102c69190612b9f565b610965565b6040516102dd96959493929190612d3e565b60405180910390f35b61030060048036038101906102fb9190612dd9565b610ab1565b005b61030a610ac7565b60405161031b959493929190612e19565b60405180910390f35b61033e60048036038101906103399190612faf565b610bfb565b005b610348610c5d565b60405161035591906131dd565b60405180910390f35b61037860048036038101906103739190612b9f565b610e08565b6040516103859190612b47565b60405180910390f35b610396611023565b6040516103a3919061328f565b60405180910390f35b6103b46111fb565b005b6103d060048036038101906103cb91906132b1565b611588565b6040516103dd9190612a9c565b60405180910390f35b61040060048036038101906103fb9190612b9f565b61161c565b005b60007f80ac58cd000000000000000000000000000000000000000000000000000000007bffffffffffffffffffffffffffffffffffffffffffffffffffffffff1916827bffffffffffffffffffffffffffffffffffffffffffffffffffffffff191614806104cd57507f5b5e139f000000000000000000000000000000000000000000000000000000007bffffffffffffffffffffffffffffffffffffffffffffffffffffffff1916827bffffffffffffffffffffffffffffffffffffffffffffffffffffffff1916145b806104dd57506104dc826119fc565b5b9050919050565b6060600080546104f390613320565b80601f016020809104026020016040519081016040528092919081815260200182805461051f90613320565b801561056c5780601f106105415761010080835404028352916020019161056c565b820191906000526020600020905b81548152906001019060200180831161054f57829003601f168201915b5050505050905090565b600061058182611a66565b6004600083815260200190815260200160002060009054906101000a900473ffffffffffffffffffffffffffffffffffffffff169050919050565b60006105c782610753565b90508073ffffffffffffffffffffffffffffffffffffffff168373ffffffffffffffffffffffffffffffffffffffff1603610637576040517f08c379a000000000000000000000000000000000000000000000000000000000815260040161062e906133c3565b60405180910390fd5b8073ffffffffffffffffffffffffffffffffffffffff16610656611ab1565b73ffffffffffffffffffffffffffffffffffffffff16148061068557506106848161067f611ab1565b611588565b5b6106c4576040517f08c379a00000000000000000000000000000000000000000000000000000000081526004016106bb90613455565b60405180910390fd5b6106ce8383611ab9565b505050565b6106e46106de611ab1565b82611b72565b610723576040517f08c379a000000000000000000000000000000000000000000000000000000000815260040161071a906134e7565b60405180910390fd5b61072e838383611c07565b505050565b61074e83838360405180602001604052806000815250610bfb565b505050565b6000806002600084815260200190815260200160002060009054906101000a900473ffffffffffffffffffffffffffffffffffffffff169050600073ffffffffffffffffffffffffffffffffffffffff168173ffffffffffffffffffffffffffffffffffffffff16036107fb576040517f08c379a00000000000000000000000000000000000000000000000000000000081526004016107f290613553565b60405180910390fd5b80915050919050565b60008073ffffffffffffffffffffffffffffffffffffffff168273ffffffffffffffffffffffffffffffffffffffff1603610874576040517f08c379a000000000000000000000000000000000000000000000000000000000815260040161086b906135e5565b60405180910390fd5b600360008373ffffffffffffffffffffffffffffffffffffffff1673ffffffffffffffffffffffffffffffffffffffff168152602001908152602001600020549050919050565b600e6020528060005260406000206000915090505481565b6060600180546108e290613320565b80601f016020809104026020016040519081016040528092919081815260200182805461090e90613320565b801561095b5780601f106109305761010080835404028352916020019161095b565b820191906000526020600020905b81548152906001019060200180831161093e57829003601f168201915b5050505050905090565b600860205280600052604060002060009150905080600001549080600101805461098e90613320565b80601f01602080910402602001604051908101604052809291908181526020018280546109ba90613320565b8015610a075780601f106109dc57610100808354040283529160200191610a07565b820191906000526020600020905b8154815290600101906020018083116109ea57829003601f168201915b505050505090806002018054610a1c90613320565b80601f0160208091040260200160405190810160405280929190818152602001828054610a4890613320565b8015610a955780601f10610a6a57610100808354040283529160200191610a95565b820191906000526020600020905b815481529060010190602001808311610a7857829003601f168201915b5050505050908060030154908060040154908060050154905086565b610ac3610abc611ab1565b8383611e6d565b5050565b6009806000018054610ad890613320565b80601f0160208091040260200160405190810160405280929190818152602001828054610b0490613320565b8015610b515780601f10610b2657610100808354040283529160200191610b51565b820191906000526020600020905b815481529060010190602001808311610b3457829003601f168201915b505050505090806001018054610b6690613320565b80601f0160208091040260200160405190810160405280929190818152602001828054610b9290613320565b8015610bdf5780601f10610bb457610100808354040283529160200191610bdf565b820191906000526020600020905b815481529060010190602001808311610bc257829003601f168201915b5050505050908060020154908060030154908060040154905085565b610c0c610c06611ab1565b83611b72565b610c4b576040517f08c379a0000000000000000000000000000000000000000000000000000000008152600401610c42906134e7565b60405180910390fd5b610c5784848484611fd9565b50505050565b60606007805480602002602001604051908101604052809291908181526020016000905b82821015610dff57838290600052602060002090600602016040518060c001604052908160008201548152602001600182018054610cbe90613320565b80601f0160208091040260200160405190810160405280929190818152602001828054610cea90613320565b8015610d375780601f10610d0c57610100808354040283529160200191610d37565b820191906000526020600020905b815481529060010190602001808311610d1a57829003601f168201915b50505050508152602001600282018054610d5090613320565b80601f0160208091040260200160405190810160405280929190818152602001828054610d7c90613320565b8015610dc95780601f10610d9e57610100808354040283529160200191610dc9565b820191906000526020600020905b815481529060010190602001808311610dac57829003601f168201915b50505050508152602001600382015481526020016004820154815260200160058201548152505081526020019060010190610c81565b50505050905090565b60606000600860008481526020019081526020016000206040518060c001604052908160008201548152602001600182018054610e4490613320565b80601f0160208091040260200160405190810160405280929190818152602001828054610e7090613320565b8015610ebd5780601f10610e9257610100808354040283529160200191610ebd565b820191906000526020600020905b815481529060010190602001808311610ea057829003601f168201915b50505050508152602001600282018054610ed690613320565b80601f0160208091040260200160405190810160405280929190818152602001828054610f0290613320565b8015610f4f5780601f10610f2457610100808354040283529160200191610f4f565b820191906000526020600020905b815481529060010190602001808311610f3257829003601f168201915b50505050508152602001600382015481526020016004820154815260200160058201548152505090506000610f878260600151612035565b90506000610f988360800151612035565b90506000610fa98460a00151612035565b90506000610fef8560200151610fbe89612035565b8760400151878787604051602001610fdb969594939291906138ed565b604051602081830303815290604052612195565b905060008160405160200161100491906139de565b6040516020818303038152906040529050809650505050505050919050565b61102b6129b2565b6000600e60003373ffffffffffffffffffffffffffffffffffffffff1673ffffffffffffffffffffffffffffffffffffffff16815260200190815260200160002054905060008111156111ea57600860008281526020019081526020016000206040518060c0016040529081600082015481526020016001820180546110b090613320565b80601f01602080910402602001604051908101604052809291908181526020018280546110dc90613320565b80156111295780601f106110fe57610100808354040283529160200191611129565b820191906000526020600020905b81548152906001019060200180831161110c57829003601f168201915b5050505050815260200160028201805461114290613320565b80601f016020809104026020016040519081016040528092919081815260200182805461116e90613320565b80156111bb5780601f10611190576101008083540402835291602001916111bb565b820191906000526020600020905b81548152906001019060200180831161119e57829003601f168201915b5050505050815260200160038201548152602001600482015481526020016005820154815250509150506111f8565b6111f26129b2565b80925050505b90565b6000600e60003373ffffffffffffffffffffffffffffffffffffffff1673ffffffffffffffffffffffffffffffffffffffff168152602001908152602001600020549050600060086000838152602001908152602001600020905061130e6040518060600160405280603c815260200161456e603c913982600101805461128190613320565b80601f01602080910402602001604051908101604052809291908181526020018280546112ad90613320565b80156112fa5780601f106112cf576101008083540402835291602001916112fa565b820191906000526020600020905b8154815290600101906020018083116112dd57829003601f168201915b50505050508360030154846005015461232c565b6113e66040518060400160405280601b81526020017f426f73732025732068617320257320485020616e6420257320414400000000008152506009600001805461135790613320565b80601f016020809104026020016040519081016040528092919081815260200182805461138390613320565b80156113d05780601f106113a5576101008083540402835291602001916113d0565b820191906000526020600020905b8154815290600101906020018083116113b357829003601f168201915b505050505060096002015460096004015461232c565b600081600301541161142d576040517f08c379a000000000000000000000000000000000000000000000000000000000815260040161142490613a72565b60405180910390fd5b600060096002015411611475576040517f08c379a000000000000000000000000000000000000000000000000000000000815260040161146c90613b04565b60405180910390fd5b806005015460096002015410156114965760006009600201819055506114b5565b80600501546009600201546114ab9190613b53565b6009600201819055505b600960040154816003015410156114d557600081600301819055506114f3565b60096004015481600301546114ea9190613b53565b81600301819055505b61151a6040518060600160405280602581526020016144b3602591396009600201546123ce565b6115406040518060600160405280602881526020016145186028913982600301546123ce565b7f32bd565ee3f2cb5ddd742bbecd6048d3e9abe90b3827a40c2b72d232e71e3c9d33600960020154836003015460405161157c93929190613b87565b60405180910390a15050565b6000600560008473ffffffffffffffffffffffffffffffffffffffff1673ffffffffffffffffffffffffffffffffffffffff16815260200190815260200160002060008373ffffffffffffffffffffffffffffffffffffffff1673ffffffffffffffffffffffffffffffffffffffff16815260200190815260200160002060009054906101000a900460ff16905092915050565b6000611628600661246a565b90506116343382612478565b6040518060c001604052808381526020016007848154811061165957611658613bbe565b5b9060005260206000209060060201600101805461167590613320565b80601f01602080910402602001604051908101604052809291908181526020018280546116a190613320565b80156116ee5780601f106116c3576101008083540402835291602001916116ee565b820191906000526020600020905b8154815290600101906020018083116116d157829003601f168201915b505050505081526020016007848154811061170c5761170b613bbe565b5b9060005260206000209060060201600201805461172890613320565b80601f016020809104026020016040519081016040528092919081815260200182805461175490613320565b80156117a15780601f10611776576101008083540402835291602001916117a1565b820191906000526020600020905b81548152906001019060200180831161178457829003601f168201915b50505050508152602001600784815481106117bf576117be613bbe565b5b9060005260206000209060060201600301548152602001600784815481106117ea576117e9613bbe565b5b90600052602060002090600602016004015481526020016007848154811061181557611814613bbe565b5b9060005260206000209060060201600501548152506008600083815260200190815260200160002060008201518160000155602082015181600101908161185c9190613d99565b5060408201518160020190816118729190613d99565b50606082015181600301556080820151816004015560a082015181600501559050506118b76040518060600160405280602e8152602001614540602e91398284612496565b80600e60003373ffffffffffffffffffffffffffffffffffffffff1673ffffffffffffffffffffffffffffffffffffffff1681526020019081526020016000208190555061190560066119e6565b7f4bc303fd457a97b4691b9af582ce71868a3d258638c8d4f8c60988a0f0bfb8cd33828460405161193893929190613b87565b60405180910390a15050565b6119e08484848460405160240161195e9493929190613e6b565b6040516020818303038152906040527f5d1a971a000000000000000000000000000000000000000000000000000000007bffffffffffffffffffffffffffffffffffffffffffffffffffffffff19166020820180517bffffffffffffffffffffffffffffffffffffffffffffffffffffffff8381831617835250505050612535565b50505050565b6001816000016000828254019250508190555050565b60007f01ffc9a7000000000000000000000000000000000000000000000000000000007bffffffffffffffffffffffffffffffffffffffffffffffffffffffff1916827bffffffffffffffffffffffffffffffffffffffffffffffffffffffff1916149050919050565b611a6f8161255e565b611aae576040517f08c379a0000000000000000000000000000000000000000000000000000000008152600401611aa590613553565b60405180910390fd5b50565b600033905090565b816004600083815260200190815260200160002060006101000a81548173ffffffffffffffffffffffffffffffffffffffff021916908373ffffffffffffffffffffffffffffffffffffffff160217905550808273ffffffffffffffffffffffffffffffffffffffff16611b2c83610753565b73ffffffffffffffffffffffffffffffffffffffff167f8c5be1e5ebec7d5bd14f71427d1e84f3dd0314c0f7b2291e5b200ac8c7c3b92560405160405180910390a45050565b600080611b7e83610753565b90508073ffffffffffffffffffffffffffffffffffffffff168473ffffffffffffffffffffffffffffffffffffffff161480611bc05750611bbf8185611588565b5b80611bfe57508373ffffffffffffffffffffffffffffffffffffffff16611be684610576565b73ffffffffffffffffffffffffffffffffffffffff16145b91505092915050565b8273ffffffffffffffffffffffffffffffffffffffff16611c2782610753565b73ffffffffffffffffffffffffffffffffffffffff1614611c7d576040517f08c379a0000000000000000000000000000000000000000000000000000000008152600401611c7490613f37565b60405180910390fd5b600073ffffffffffffffffffffffffffffffffffffffff168273ffffffffffffffffffffffffffffffffffffffff1603611cec576040517f08c379a0000000000000000000000000000000000000000000000000000000008152600401611ce390613fc9565b60405180910390fd5b611cf78383836125ca565b611d02600082611ab9565b6001600360008573ffffffffffffffffffffffffffffffffffffffff1673ffffffffffffffffffffffffffffffffffffffff1681526020019081526020016000206000828254611d529190613b53565b925050819055506001600360008473ffffffffffffffffffffffffffffffffffffffff1673ffffffffffffffffffffffffffffffffffffffff1681526020019081526020016000206000828254611da99190613fe9565b92505081905550816002600083815260200190815260200160002060006101000a81548173ffffffffffffffffffffffffffffffffffffffff021916908373ffffffffffffffffffffffffffffffffffffffff160217905550808273ffffffffffffffffffffffffffffffffffffffff168473ffffffffffffffffffffffffffffffffffffffff167fddf252ad1be2c89b69c2b068fc378daa952ba7f163c4a11628f55a4df523b3ef60405160405180910390a4611e688383836125cf565b505050565b8173ffffffffffffffffffffffffffffffffffffffff168373ffffffffffffffffffffffffffffffffffffffff1603611edb576040517f08c379a0000000000000000000000000000000000000000000000000000000008152600401611ed290614069565b60405180910390fd5b80600560008573ffffffffffffffffffffffffffffffffffffffff1673ffffffffffffffffffffffffffffffffffffffff16815260200190815260200160002060008473ffffffffffffffffffffffffffffffffffffffff1673ffffffffffffffffffffffffffffffffffffffff16815260200190815260200160002060006101000a81548160ff0219169083151502179055508173ffffffffffffffffffffffffffffffffffffffff168373ffffffffffffffffffffffffffffffffffffffff167f17307eab39ab6107e8899845ad3d59bd9653f200f220920489ca2b5937696c3183604051611fcc9190612a9c565b60405180910390a3505050565b611fe4848484611c07565b611ff0848484846125d4565b61202f576040517f08c379a0000000000000000000000000000000000000000000000000000000008152600401612026906140fb565b60405180910390fd5b50505050565b60606000820361207c576040518060400160405280600181526020017f30000000000000000000000000000000000000000000000000000000000000008152509050612190565b600082905060005b600082146120ae5780806120979061411b565b915050600a826120a79190614192565b9150612084565b60008167ffffffffffffffff8111156120ca576120c9612e84565b5b6040519080825280601f01601f1916602001820160405280156120fc5781602001600182028036833780820191505090505b5090505b60008514612189576001826121159190613b53565b9150600a8561212491906141c3565b60306121309190613fe9565b60f81b81838151811061214657612145613bbe565b5b60200101907effffffffffffffffffffffffffffffffffffffffffffffffffffffffffffff1916908160001a905350600a856121829190614192565b9450612100565b8093505050505b919050565b6060600082519050600081036121bd5760405180602001604052806000815250915050612327565b600060036002836121ce9190613fe9565b6121d89190614192565b60046121e491906141f4565b905060006020826121f59190613fe9565b67ffffffffffffffff81111561220e5761220d612e84565b5b6040519080825280601f01601f1916602001820160405280156122405781602001600182028036833780820191505090505b50905060006040518060600160405280604081526020016144d8604091399050600181016020830160005b868110156122e45760038101905062ffffff818a015116603f8160121c168401518060081b905060ff603f83600c1c1686015116810190508060081b905060ff603f8360061c1686015116810190508060081b905060ff603f831686015116810190508060e01b9050808452600484019350505061226b565b5060038606600181146122fe576002811461230e57612319565b613d3d60f01b6002830352612319565b603d60f81b60018303525b508484525050819450505050505b919050565b6123c8848484846040516024016123469493929190614236565b6040516020818303038152906040527ff45d7d2c000000000000000000000000000000000000000000000000000000007bffffffffffffffffffffffffffffffffffffffffffffffffffffffff19166020820180517bffffffffffffffffffffffffffffffffffffffffffffffffffffffff8381831617835250505050612535565b50505050565b61246682826040516024016123e4929190614289565b6040516020818303038152906040527fb60e72cc000000000000000000000000000000000000000000000000000000007bffffffffffffffffffffffffffffffffffffffffffffffffffffffff19166020820180517bffffffffffffffffffffffffffffffffffffffffffffffffffffffff8381831617835250505050612535565b5050565b600081600001549050919050565b61249282826040518060200160405280600081525061275b565b5050565b6125308383836040516024016124ae939291906142b9565b6040516020818303038152906040527fca47c4eb000000000000000000000000000000000000000000000000000000007bffffffffffffffffffffffffffffffffffffffffffffffffffffffff19166020820180517bffffffffffffffffffffffffffffffffffffffffffffffffffffffff8381831617835250505050612535565b505050565b60008151905060006a636f6e736f6c652e6c6f679050602083016000808483855afa5050505050565b60008073ffffffffffffffffffffffffffffffffffffffff166002600084815260200190815260200160002060009054906101000a900473ffffffffffffffffffffffffffffffffffffffff1673ffffffffffffffffffffffffffffffffffffffff1614159050919050565b505050565b505050565b60006125f58473ffffffffffffffffffffffffffffffffffffffff166127b6565b1561274e578373ffffffffffffffffffffffffffffffffffffffff1663150b7a0261261e611ab1565b8786866040518563ffffffff1660e01b8152600401612640949392919061434c565b6020604051808303816000875af192505050801561267c57506040513d601f19601f8201168201806040525081019061267991906143ad565b60015b6126fe573d80600081146126ac576040519150601f19603f3d011682016040523d82523d6000602084013e6126b1565b606091505b5060008151036126f6576040517f08c379a00000000000000000000000000000000000000000000000000000000081526004016126ed906140fb565b60405180910390fd5b805181602001fd5b63150b7a0260e01b7bffffffffffffffffffffffffffffffffffffffffffffffffffffffff1916817bffffffffffffffffffffffffffffffffffffffffffffffffffffffff191614915050612753565b600190505b949350505050565b61276583836127d9565b61277260008484846125d4565b6127b1576040517f08c379a00000000000000000000000000000000000000000000000000000000081526004016127a8906140fb565b60405180910390fd5b505050565b6000808273ffffffffffffffffffffffffffffffffffffffff163b119050919050565b600073ffffffffffffffffffffffffffffffffffffffff168273ffffffffffffffffffffffffffffffffffffffff1603612848576040517f08c379a000000000000000000000000000000000000000000000000000000000815260040161283f90614426565b60405180910390fd5b6128518161255e565b15612891576040517f08c379a000000000000000000000000000000000000000000000000000000000815260040161288890614492565b60405180910390fd5b61289d600083836125ca565b6001600360008473ffffffffffffffffffffffffffffffffffffffff1673ffffffffffffffffffffffffffffffffffffffff16815260200190815260200160002060008282546128ed9190613fe9565b92505081905550816002600083815260200190815260200160002060006101000a81548173ffffffffffffffffffffffffffffffffffffffff021916908373ffffffffffffffffffffffffffffffffffffffff160217905550808273ffffffffffffffffffffffffffffffffffffffff16600073ffffffffffffffffffffffffffffffffffffffff167fddf252ad1be2c89b69c2b068fc378daa952ba7f163c4a11628f55a4df523b3ef60405160405180910390a46129ae600083836125cf565b5050565b6040518060c001604052806000815260200160608152602001606081526020016000815260200160008152602001600081525090565b6000604051905090565b600080fd5b600080fd5b60007fffffffff0000000000000000000000000000000000000000000000000000000082169050919050565b612a31816129fc565b8114612a3c57600080fd5b50565b600081359050612a4e81612a28565b92915050565b600060208284031215612a6a57612a696129f2565b5b6000612a7884828501612a3f565b91505092915050565b60008115159050919050565b612a9681612a81565b82525050565b6000602082019050612ab16000830184612a8d565b92915050565b600081519050919050565b600082825260208201905092915050565b60005b83811015612af1578082015181840152602081019050612ad6565b60008484015250505050565b6000601f19601f8301169050919050565b6000612b1982612ab7565b612b238185612ac2565b9350612b33818560208601612ad3565b612b3c81612afd565b840191505092915050565b60006020820190508181036000830152612b618184612b0e565b905092915050565b6000819050919050565b612b7c81612b69565b8114612b8757600080fd5b50565b600081359050612b9981612b73565b92915050565b600060208284031215612bb557612bb46129f2565b5b6000612bc384828501612b8a565b91505092915050565b600073ffffffffffffffffffffffffffffffffffffffff82169050919050565b6000612bf782612bcc565b9050919050565b612c0781612bec565b82525050565b6000602082019050612c226000830184612bfe565b92915050565b612c3181612bec565b8114612c3c57600080fd5b50565b600081359050612c4e81612c28565b92915050565b60008060408385031215612c6b57612c6a6129f2565b5b6000612c7985828601612c3f565b9250506020612c8a85828601612b8a565b9150509250929050565b600080600060608486031215612cad57612cac6129f2565b5b6000612cbb86828701612c3f565b9350506020612ccc86828701612c3f565b9250506040612cdd86828701612b8a565b9150509250925092565b600060208284031215612cfd57612cfc6129f2565b5b6000612d0b84828501612c3f565b91505092915050565b612d1d81612b69565b82525050565b6000602082019050612d386000830184612d14565b92915050565b600060c082019050612d536000830189612d14565b8181036020830152612d658188612b0e565b90508181036040830152612d798187612b0e565b9050612d886060830186612d14565b612d956080830185612d14565b612da260a0830184612d14565b979650505050505050565b612db681612a81565b8114612dc157600080fd5b50565b600081359050612dd381612dad565b92915050565b60008060408385031215612df057612def6129f2565b5b6000612dfe85828601612c3f565b9250506020612e0f85828601612dc4565b9150509250929050565b600060a0820190508181036000830152612e338188612b0e565b90508181036020830152612e478187612b0e565b9050612e566040830186612d14565b612e636060830185612d14565b612e706080830184612d14565b9695505050505050565b600080fd5b600080fd5b7f4e487b7100000000000000000000000000000000000000000000000000000000600052604160045260246000fd5b612ebc82612afd565b810181811067ffffffffffffffff82111715612edb57612eda612e84565b5b80604052505050565b6000612eee6129e8565b9050612efa8282612eb3565b919050565b600067ffffffffffffffff821115612f1a57612f19612e84565b5b612f2382612afd565b9050602081019050919050565b82818337600083830152505050565b6000612f52612f4d84612eff565b612ee4565b905082815260208101848484011115612f6e57612f6d612e7f565b5b612f79848285612f30565b509392505050565b600082601f830112612f9657612f95612e7a565b5b8135612fa6848260208601612f3f565b91505092915050565b60008060008060808587031215612fc957612fc86129f2565b5b6000612fd787828801612c3f565b9450506020612fe887828801612c3f565b9350506040612ff987828801612b8a565b925050606085013567ffffffffffffffff81111561301a576130196129f7565b5b61302687828801612f81565b91505092959194509250565b600081519050919050565b600082825260208201905092915050565b6000819050602082019050919050565b61306781612b69565b82525050565b600082825260208201905092915050565b600061308982612ab7565b613093818561306d565b93506130a3818560208601612ad3565b6130ac81612afd565b840191505092915050565b600060c0830160008301516130cf600086018261305e565b50602083015184820360208601526130e7828261307e565b91505060408301518482036040860152613101828261307e565b9150506060830151613116606086018261305e565b506080830151613129608086018261305e565b5060a083015161313c60a086018261305e565b508091505092915050565b600061315383836130b7565b905092915050565b6000602082019050919050565b600061317382613032565b61317d818561303d565b93508360208202850161318f8561304e565b8060005b858110156131cb57848403895281516131ac8582613147565b94506131b78361315b565b925060208a01995050600181019050613193565b50829750879550505050505092915050565b600060208201905081810360008301526131f78184613168565b905092915050565b600060c083016000830151613217600086018261305e565b506020830151848203602086015261322f828261307e565b91505060408301518482036040860152613249828261307e565b915050606083015161325e606086018261305e565b506080830151613271608086018261305e565b5060a083015161328460a086018261305e565b508091505092915050565b600060208201905081810360008301526132a981846131ff565b905092915050565b600080604083850312156132c8576132c76129f2565b5b60006132d685828601612c3f565b92505060206132e785828601612c3f565b9150509250929050565b7f4e487b7100000000000000000000000000000000000000000000000000000000600052602260045260246000fd5b6000600282049050600182168061333857607f821691505b60208210810361334b5761334a6132f1565b5b50919050565b7f4552433732313a20617070726f76616c20746f2063757272656e74206f776e6560008201527f7200000000000000000000000000000000000000000000000000000000000000602082015250565b60006133ad602183612ac2565b91506133b882613351565b604082019050919050565b600060208201905081810360008301526133dc816133a0565b9050919050565b7f4552433732313a20617070726f76652063616c6c6572206973206e6f7420746f60008201527f6b656e206f776e6572206e6f7220617070726f76656420666f7220616c6c0000602082015250565b600061343f603e83612ac2565b915061344a826133e3565b604082019050919050565b6000602082019050818103600083015261346e81613432565b9050919050565b7f4552433732313a2063616c6c6572206973206e6f7420746f6b656e206f776e6560008201527f72206e6f7220617070726f766564000000000000000000000000000000000000602082015250565b60006134d1602e83612ac2565b91506134dc82613475565b604082019050919050565b60006020820190508181036000830152613500816134c4565b9050919050565b7f4552433732313a20696e76616c696420746f6b656e2049440000000000000000600082015250565b600061353d601883612ac2565b915061354882613507565b602082019050919050565b6000602082019050818103600083015261356c81613530565b9050919050565b7f4552433732313a2061646472657373207a65726f206973206e6f74206120766160008201527f6c6964206f776e65720000000000000000000000000000000000000000000000602082015250565b60006135cf602983612ac2565b91506135da82613573565b604082019050919050565b600060208201905081810360008301526135fe816135c2565b9050919050565b600081905092915050565b7f7b226e616d65223a202200000000000000000000000000000000000000000000600082015250565b6000613646600a83613605565b915061365182613610565b600a82019050919050565b600061366782612ab7565b6136718185613605565b9350613681818560208601612ad3565b80840191505092915050565b7f202d2d204e465420233a20000000000000000000000000000000000000000000600082015250565b60006136c3600b83613605565b91506136ce8261368d565b600b82019050919050565b7f222c20226465736372697074696f6e223a20225468697320697320616e204e4660008201527f542074686174206c6574732070656f706c6520706c617920696e20746865206760208201527f616d6520507566666c6520536c6179657221222c2022696d616765223a202200604082015250565b600061375b605f83613605565b9150613766826136d9565b605f82019050919050565b7f222c202261747472696275746573223a205b207b202274726169745f7479706560008201527f223a20224865616c746820506f696e7473222c202276616c7565223a20000000602082015250565b60006137cd603d83613605565b91506137d882613771565b603d82019050919050565b7f2c20226d61785f76616c7565223a000000000000000000000000000000000000600082015250565b6000613819600e83613605565b9150613824826137e3565b600e82019050919050565b7f7d2c207b202274726169745f74797065223a202241747461636b2044616d616760008201527f65222c202276616c7565223a2000000000000000000000000000000000000000602082015250565b600061388b602d83613605565b91506138968261382f565b602d82019050919050565b7f7d205d7d00000000000000000000000000000000000000000000000000000000600082015250565b60006138d7600483613605565b91506138e2826138a1565b600482019050919050565b60006138f882613639565b9150613904828961365c565b915061390f826136b6565b915061391b828861365c565b91506139268261374e565b9150613932828761365c565b915061393d826137c0565b9150613949828661365c565b91506139548261380c565b9150613960828561365c565b915061396b8261387e565b9150613977828461365c565b9150613982826138ca565b9150819050979650505050505050565b7f646174613a6170706c69636174696f6e2f6a736f6e3b6261736536342c000000600082015250565b60006139c8601d83613605565b91506139d382613992565b601d82019050919050565b60006139e9826139bb565b91506139f5828461365c565b915081905092915050565b7f4572726f723a20636861726163746572206d757374206861766520485020746f60008201527f2061747461636b20626f73732e00000000000000000000000000000000000000602082015250565b6000613a5c602d83612ac2565b9150613a6782613a00565b604082019050919050565b60006020820190508181036000830152613a8b81613a4f565b9050919050565b7f4572726f723a20626f7373206d757374206861766520485020746f206174746160008201527f636b206368617261637465722e00000000000000000000000000000000000000602082015250565b6000613aee602d83612ac2565b9150613af982613a92565b604082019050919050565b60006020820190508181036000830152613b1d81613ae1565b9050919050565b7f4e487b7100000000000000000000000000000000000000000000000000000000600052601160045260246000fd5b6000613b5e82612b69565b9150613b6983612b69565b9250828203905081811115613b8157613b80613b24565b5b92915050565b6000606082019050613b9c6000830186612bfe565b613ba96020830185612d14565b613bb66040830184612d14565b949350505050565b7f4e487b7100000000000000000000000000000000000000000000000000000000600052603260045260246000fd5b60008190508160005260206000209050919050565b60006020601f8301049050919050565b600082821b905092915050565b600060088302613c4f7fffffffffffffffffffffffffffffffffffffffffffffffffffffffffffffffff82613c12565b613c598683613c12565b95508019841693508086168417925050509392505050565b6000819050919050565b6000613c96613c91613c8c84612b69565b613c71565b612b69565b9050919050565b6000819050919050565b613cb083613c7b565b613cc4613cbc82613c9d565b848454613c1f565b825550505050565b600090565b613cd9613ccc565b613ce4818484613ca7565b505050565b5b81811015613d0857613cfd600082613cd1565b600181019050613cea565b5050565b601f821115613d4d57613d1e81613bed565b613d2784613c02565b81016020851015613d36578190505b613d4a613d4285613c02565b830182613ce9565b50505b505050565b600082821c905092915050565b6000613d7060001984600802613d52565b1980831691505092915050565b6000613d898383613d5f565b9150826002028217905092915050565b613da282612ab7565b67ffffffffffffffff811115613dbb57613dba612e84565b5b613dc58254613320565b613dd0828285613d0c565b600060209050601f831160018114613e035760008415613df1578287015190505b613dfb8582613d7d565b865550613e63565b601f198416613e1186613bed565b60005b82811015613e3957848901518255600182019150602085019450602081019050613e14565b86831015613e565784890151613e52601f891682613d5f565b8355505b6001600288020188555050505b505050505050565b60006080820190508181036000830152613e858187612b0e565b90508181036020830152613e998186612b0e565b9050613ea86040830185612d14565b8181036060830152613eba8184612b0e565b905095945050505050565b7f4552433732313a207472616e736665722066726f6d20696e636f72726563742060008201527f6f776e6572000000000000000000000000000000000000000000000000000000602082015250565b6000613f21602583612ac2565b9150613f2c82613ec5565b604082019050919050565b60006020820190508181036000830152613f5081613f14565b9050919050565b7f4552433732313a207472616e7366657220746f20746865207a65726f2061646460008201527f7265737300000000000000000000000000000000000000000000000000000000602082015250565b6000613fb3602483612ac2565b9150613fbe82613f57565b604082019050919050565b60006020820190508181036000830152613fe281613fa6565b9050919050565b6000613ff482612b69565b9150613fff83612b69565b925082820190508082111561401757614016613b24565b5b92915050565b7f4552433732313a20617070726f766520746f2063616c6c657200000000000000600082015250565b6000614053601983612ac2565b915061405e8261401d565b602082019050919050565b6000602082019050818103600083015261408281614046565b9050919050565b7f4552433732313a207472616e7366657220746f206e6f6e20455243373231526560008201527f63656976657220696d706c656d656e7465720000000000000000000000000000602082015250565b60006140e5603283612ac2565b91506140f082614089565b604082019050919050565b60006020820190508181036000830152614114816140d8565b9050919050565b600061412682612b69565b91507fffffffffffffffffffffffffffffffffffffffffffffffffffffffffffffffff820361415857614157613b24565b5b600182019050919050565b7f4e487b7100000000000000000000000000000000000000000000000000000000600052601260045260246000fd5b600061419d82612b69565b91506141a883612b69565b9250826141b8576141b7614163565b5b828204905092915050565b60006141ce82612b69565b91506141d983612b69565b9250826141e9576141e8614163565b5b828206905092915050565b60006141ff82612b69565b915061420a83612b69565b925082820261421881612b69565b9150828204841483151761422f5761422e613b24565b5b5092915050565b600060808201905081810360008301526142508187612b0e565b905081810360208301526142648186612b0e565b90506142736040830185612d14565b6142806060830184612d14565b95945050505050565b600060408201905081810360008301526142a38185612b0e565b90506142b26020830184612d14565b9392505050565b600060608201905081810360008301526142d38186612b0e565b90506142e26020830185612d14565b6142ef6040830184612d14565b949350505050565b600081519050919050565b600082825260208201905092915050565b600061431e826142f7565b6143288185614302565b9350614338818560208601612ad3565b61434181612afd565b840191505092915050565b60006080820190506143616000830187612bfe565b61436e6020830186612bfe565b61437b6040830185612d14565b818103606083015261438d8184614313565b905095945050505050565b6000815190506143a781612a28565b92915050565b6000602082840312156143c3576143c26129f2565b5b60006143d184828501614398565b91505092915050565b7f4552433732313a206d696e7420746f20746865207a65726f2061646472657373600082015250565b6000614410602083612ac2565b915061441b826143da565b602082019050919050565b6000602082019050818103600083015261443f81614403565b9050919050565b7f4552433732313a20746f6b656e20616c7265616479206d696e74656400000000600082015250565b600061447c601c83612ac2565b915061448782614446565b602082019050919050565b600060208201905081810360008301526144ab8161446f565b905091905056fe506c617965722061747461636b656420626f73732e204e657720626f73732068703a2025734142434445464748494a4b4c4d4e4f505152535455565758595a6162636465666768696a6b6c6d6e6f707172737475767778797a303132333435363738392b2f426f73732061747461636b656420706c617965722e204e657720706c617965722068703a2025730a4d696e746564204e465420772f20746f6b656e496420257320616e6420636861726163746572496e6465782025730a506c6179657220772f206368617261637465722025732061626f757420746f2061747461636b2e2048617320257320485020616e64202573204144a2646970667358221220df1dff0117e65d99e0c5c8475c6c1ea98d644fd2e22b57df0d63335ef64404be64736f6c63430008110033446f6e6520696e697469616c697a696e6720257320772f2048502025732c20696d67202573446f6e6520696e697469616c697a696e6720626f737320257320772f2048502025732c20696d67202573",
  "linkReferences": {},
  "deployedLinkReferences": {}
}